{
  "contractName": "Voting",
  "abi": [
    {
      "anonymous": false,
      "inputs": [
        {
          "indexed": true,
          "internalType": "address",
          "name": "previousOwner",
          "type": "address"
        },
        {
          "indexed": true,
          "internalType": "address",
          "name": "newOwner",
          "type": "address"
        }
      ],
      "name": "OwnershipTransferred",
      "type": "event"
    },
    {
      "anonymous": false,
      "inputs": [
        {
          "indexed": false,
          "internalType": "uint256",
          "name": "_proposalId",
          "type": "uint256"
        }
      ],
      "name": "ProposalRegistered",
      "type": "event"
    },
    {
      "anonymous": false,
      "inputs": [
        {
          "indexed": false,
          "internalType": "address",
          "name": "_voter",
          "type": "address"
        },
        {
          "indexed": false,
          "internalType": "uint256",
          "name": "_proposalId",
          "type": "uint256"
        }
      ],
      "name": "Voted",
      "type": "event"
    },
    {
      "anonymous": false,
      "inputs": [
        {
          "indexed": false,
          "internalType": "address",
          "name": "_voterAddress",
          "type": "address"
        }
      ],
      "name": "VoterRegistered",
      "type": "event"
    },
    {
      "anonymous": false,
      "inputs": [
        {
          "indexed": false,
          "internalType": "enum Voting.WorkflowStatus",
          "name": "_previousStatus",
          "type": "uint8"
        },
        {
          "indexed": false,
          "internalType": "enum Voting.WorkflowStatus",
          "name": "_newStatus",
          "type": "uint8"
        }
      ],
      "name": "WorkflowStatusChange",
      "type": "event"
    },
    {
      "inputs": [],
      "name": "owner",
      "outputs": [
        {
          "internalType": "address",
          "name": "",
          "type": "address"
        }
      ],
      "stateMutability": "view",
      "type": "function",
      "constant": true
    },
    {
      "inputs": [],
      "name": "renounceOwnership",
      "outputs": [],
      "stateMutability": "nonpayable",
      "type": "function"
    },
    {
      "inputs": [
        {
          "internalType": "address",
          "name": "newOwner",
          "type": "address"
        }
      ],
      "name": "transferOwnership",
      "outputs": [],
      "stateMutability": "nonpayable",
      "type": "function"
    },
    {
      "inputs": [
        {
          "internalType": "address",
          "name": "",
          "type": "address"
        }
      ],
      "name": "voters",
      "outputs": [
        {
          "internalType": "bool",
          "name": "isRegistered",
          "type": "bool"
        },
        {
          "internalType": "bool",
          "name": "hasVoted",
          "type": "bool"
        },
        {
          "internalType": "uint256",
          "name": "votedProposalId",
          "type": "uint256"
        }
      ],
      "stateMutability": "view",
      "type": "function",
      "constant": true
    },
    {
      "inputs": [],
      "name": "workflowStatus",
      "outputs": [
        {
          "internalType": "enum Voting.WorkflowStatus",
          "name": "",
          "type": "uint8"
        }
      ],
      "stateMutability": "view",
      "type": "function",
      "constant": true
    },
    {
      "inputs": [],
      "name": "startProposalRegistration",
      "outputs": [],
      "stateMutability": "nonpayable",
      "type": "function"
    },
    {
      "inputs": [],
      "name": "endProposalRegistration",
      "outputs": [],
      "stateMutability": "nonpayable",
      "type": "function"
    },
    {
      "inputs": [],
      "name": "startVotingSession",
      "outputs": [],
      "stateMutability": "nonpayable",
      "type": "function"
    },
    {
      "inputs": [],
      "name": "endVotingSession",
      "outputs": [],
      "stateMutability": "nonpayable",
      "type": "function"
    },
    {
      "inputs": [],
      "name": "closeVoting",
      "outputs": [],
      "stateMutability": "nonpayable",
      "type": "function"
    },
    {
      "inputs": [
        {
          "internalType": "address",
          "name": "_address",
          "type": "address"
        }
      ],
      "name": "addVoter",
      "outputs": [],
      "stateMutability": "nonpayable",
      "type": "function"
    },
    {
      "inputs": [
        {
          "internalType": "address",
          "name": "_address",
          "type": "address"
        }
      ],
      "name": "removeVoter",
      "outputs": [],
      "stateMutability": "nonpayable",
      "type": "function"
    },
    {
      "inputs": [
        {
          "internalType": "string",
          "name": "_description",
          "type": "string"
        }
      ],
      "name": "addProposal",
      "outputs": [],
      "stateMutability": "nonpayable",
      "type": "function"
    },
    {
      "inputs": [
        {
          "internalType": "uint256",
          "name": "_proposalId",
          "type": "uint256"
        }
      ],
      "name": "vote",
      "outputs": [],
      "stateMutability": "nonpayable",
      "type": "function"
    },
    {
      "inputs": [],
      "name": "winningProposal",
      "outputs": [
        {
          "components": [
            {
              "internalType": "string",
              "name": "description",
              "type": "string"
            },
            {
              "internalType": "uint256",
              "name": "voteCount",
              "type": "uint256"
            }
          ],
          "internalType": "struct Voting.Proposal[]",
          "name": "winner",
          "type": "tuple[]"
        }
      ],
      "stateMutability": "view",
      "type": "function",
      "constant": true
    },
    {
      "inputs": [],
      "name": "viewProposals",
      "outputs": [
        {
          "components": [
            {
              "internalType": "string",
              "name": "description",
              "type": "string"
            },
            {
              "internalType": "uint256",
              "name": "voteCount",
              "type": "uint256"
            }
          ],
          "internalType": "struct Voting.Proposal[]",
          "name": "proposals",
          "type": "tuple[]"
        }
      ],
      "stateMutability": "view",
      "type": "function",
      "constant": true
    }
  ],
  "bytecode": "0x60806040523480156200001157600080fd5b5062000032620000266200003860201b60201c565b6200004060201b60201c565b62000104565b600033905090565b60008060009054906101000a900473ffffffffffffffffffffffffffffffffffffffff169050816000806101000a81548173ffffffffffffffffffffffffffffffffffffffff021916908373ffffffffffffffffffffffffffffffffffffffff1602179055508173ffffffffffffffffffffffffffffffffffffffff168173ffffffffffffffffffffffffffffffffffffffff167f8be0079c531659141344cd1fd0a4f28419497f9722a3daafe3b4186f6b6457e060405160405180910390a35050565b61282080620001146000396000f3fe608060405234801561001057600080fd5b50600436106101005760003560e01c8063a1edffa211610097578063e85a8f2a11610066578063e85a8f2a1461022b578063ee74c67814610235578063f2fde38b1461023f578063f4ab9adf1461025b57610100565b8063a1edffa2146101c7578063a3ec138d146101e5578063a7bfab1614610217578063c631b2921461022157610100565b8063715018a6116100d3578063715018a6146101655780637b47c2731461016f57806386c1ff681461018d5780638da5cb5b146101a957610100565b80630121b93f146101055780630f7e2838146101215780632fdae3c51461012b578063609ff1bd14610147575b600080fd5b61011f600480360381019061011a9190611924565b610277565b005b6101296104c0565b005b61014560048036038101906101409190611a97565b610628565b005b61014f6107e8565b60405161015c9190611c76565b60405180910390f35b61016d6109f2565b005b610177610a7a565b6040516101849190611c76565b60405180910390f35b6101a760048036038101906101a29190611cf6565b610b75565b005b6101b1610d1c565b6040516101be9190611d32565b60405180910390f35b6101cf610d45565b6040516101dc9190611dc4565b60405180910390f35b6101ff60048036038101906101fa9190611cf6565b610d58565b60405161020e93929190611e09565b60405180910390f35b61021f610d9c565b005b610229610f04565b005b61023361115f565b005b61023d6112c6565b005b61025960048036038101906102549190611cf6565b61142d565b005b61027560048036038101906102709190611cf6565b611525565b005b600160003373ffffffffffffffffffffffffffffffffffffffff1673ffffffffffffffffffffffffffffffffffffffff16815260200190815260200160002060000160009054906101000a900460ff16610306576040517f08c379a00000000000000000000000000000000000000000000000000000000081526004016102fd90611ec3565b60405180910390fd5b6003600581111561031a57610319611d4d565b5b600260009054906101000a900460ff16600581111561033c5761033b611d4d565b5b1461037c576040517f08c379a000000000000000000000000000000000000000000000000000000000815260040161037390611f2f565b60405180910390fd5b6000600160003373ffffffffffffffffffffffffffffffffffffffff1673ffffffffffffffffffffffffffffffffffffffff16815260200190815260200160002090508060000160019054906101000a900460ff1615610411576040517f08c379a000000000000000000000000000000000000000000000000000000000815260040161040890611f9b565b60405180910390fd5b600380549050821061042257600080fd5b6003828154811061043657610435611fbb565b5b9060005260206000209060020201600101600081548092919061045890612019565b919050555060018160000160016101000a81548160ff0219169083151502179055508181600101819055507f4d99b957a2bc29a30ebd96a7be8e68fe50a3c701db28a91436490b7d53870ca433836040516104b4929190612062565b60405180910390a15050565b6104c8611704565b73ffffffffffffffffffffffffffffffffffffffff166104e6610d1c565b73ffffffffffffffffffffffffffffffffffffffff161461053c576040517f08c379a0000000000000000000000000000000000000000000000000000000008152600401610533906120d7565b60405180910390fd5b600060058111156105505761054f611d4d565b5b600260009054906101000a900460ff16600581111561057257610571611d4d565b5b146105b2576040517f08c379a00000000000000000000000000000000000000000000000000000000081526004016105a990612169565b60405180910390fd5b6001600260006101000a81548160ff021916908360058111156105d8576105d7611d4d565b5b02179055507f0a97a4ee45751e2abf3e4fc8946939630b11b371ea8ae39ccdc3056e98f5cc3f6000600260009054906101000a900460ff1660405161061e929190612189565b60405180910390a1565b600160003373ffffffffffffffffffffffffffffffffffffffff1673ffffffffffffffffffffffffffffffffffffffff16815260200190815260200160002060000160009054906101000a900460ff166106b7576040517f08c379a00000000000000000000000000000000000000000000000000000000081526004016106ae90611ec3565b60405180910390fd5b600160058111156106cb576106ca611d4d565b5b600260009054906101000a900460ff1660058111156106ed576106ec611d4d565b5b1461072d576040517f08c379a0000000000000000000000000000000000000000000000000000000008152600401610724906121fe565b60405180910390fd5b60006040518060400160405280838152602001600081525090506003819080600181540180825580915050600190039060005260206000209060020201600090919091909150600082015181600001908051906020019061078f9291906117d0565b506020820151816001015550507f92e393e9b54e2f801d3ea4beb0c5e71a21cc34a5d34b77d0fb8a3aa1650dc18f60016003805490506107cf919061221e565b6040516107dc9190612252565b60405180910390a15050565b60606005808111156107fd576107fc611d4d565b5b600260009054906101000a900460ff16600581111561081f5761081e611d4d565b5b1461085f576040517f08c379a0000000000000000000000000000000000000000000000000000000008152600401610856906122b9565b60405180910390fd5b6000600480549050905060008167ffffffffffffffff8111156108855761088461196c565b5b6040519080825280602002602001820160405280156108be57816020015b6108ab611856565b8152602001906001900390816108a35790505b50905060005b6004805490508110156109e9576003600482815481106108e7576108e6611fbb565b5b90600052602060002001548154811061090357610902611fbb565b5b906000526020600020906002020160405180604001604052908160008201805461092c90612308565b80601f016020809104026020016040519081016040528092919081815260200182805461095890612308565b80156109a55780601f1061097a576101008083540402835291602001916109a5565b820191906000526020600020905b81548152906001019060200180831161098857829003601f168201915b505050505081526020016001820154815250508282815181106109cb576109ca611fbb565b5b602002602001018190525080806109e190612019565b9150506108c4565b50809250505090565b6109fa611704565b73ffffffffffffffffffffffffffffffffffffffff16610a18610d1c565b73ffffffffffffffffffffffffffffffffffffffff1614610a6e576040517f08c379a0000000000000000000000000000000000000000000000000000000008152600401610a65906120d7565b60405180910390fd5b610a78600061170c565b565b60606003805480602002602001604051908101604052809291908181526020016000905b82821015610b6c5783829060005260206000209060020201604051806040016040529081600082018054610ad190612308565b80601f0160208091040260200160405190810160405280929190818152602001828054610afd90612308565b8015610b4a5780601f10610b1f57610100808354040283529160200191610b4a565b820191906000526020600020905b815481529060010190602001808311610b2d57829003601f168201915b5050505050815260200160018201548152505081526020019060010190610a9e565b50505050905090565b610b7d611704565b73ffffffffffffffffffffffffffffffffffffffff16610b9b610d1c565b73ffffffffffffffffffffffffffffffffffffffff1614610bf1576040517f08c379a0000000000000000000000000000000000000000000000000000000008152600401610be8906120d7565b60405180910390fd5b60006005811115610c0557610c04611d4d565b5b600260009054906101000a900460ff166005811115610c2757610c26611d4d565b5b14610c67576040517f08c379a0000000000000000000000000000000000000000000000000000000008152600401610c5e906123ac565b60405180910390fd5b6000600160008373ffffffffffffffffffffffffffffffffffffffff1673ffffffffffffffffffffffffffffffffffffffff16815260200190815260200160002090508060000160009054906101000a900460ff16610cfb576040517f08c379a0000000000000000000000000000000000000000000000000000000008152600401610cf290612418565b60405180910390fd5b60008160000160006101000a81548160ff0219169083151502179055505050565b60008060009054906101000a900473ffffffffffffffffffffffffffffffffffffffff16905090565b600260009054906101000a900460ff1681565b60016020528060005260406000206000915090508060000160009054906101000a900460ff16908060000160019054906101000a900460ff16908060010154905083565b610da4611704565b73ffffffffffffffffffffffffffffffffffffffff16610dc2610d1c565b73ffffffffffffffffffffffffffffffffffffffff1614610e18576040517f08c379a0000000000000000000000000000000000000000000000000000000008152600401610e0f906120d7565b60405180910390fd5b60036005811115610e2c57610e2b611d4d565b5b600260009054906101000a900460ff166005811115610e4e57610e4d611d4d565b5b14610e8e576040517f08c379a0000000000000000000000000000000000000000000000000000000008152600401610e85906124aa565b60405180910390fd5b6004600260006101000a81548160ff02191690836005811115610eb457610eb3611d4d565b5b02179055507f0a97a4ee45751e2abf3e4fc8946939630b11b371ea8ae39ccdc3056e98f5cc3f6003600260009054906101000a900460ff16604051610efa929190612189565b60405180910390a1565b610f0c611704565b73ffffffffffffffffffffffffffffffffffffffff16610f2a610d1c565b73ffffffffffffffffffffffffffffffffffffffff1614610f80576040517f08c379a0000000000000000000000000000000000000000000000000000000008152600401610f77906120d7565b60405180910390fd5b60046005811115610f9457610f93611d4d565b5b600260009054906101000a900460ff166005811115610fb657610fb5611d4d565b5b14610ff6576040517f08c379a0000000000000000000000000000000000000000000000000000000008152600401610fed9061253c565b60405180910390fd5b6005600260006101000a81548160ff0219169083600581111561101c5761101b611d4d565b5b02179055506000805b60038054905081101561111257816003828154811061104757611046611fbb565b5b90600052602060002090600202016001015414156110895760048190806001815401808255809150506001900390600052602060002001600090919091909150555b816003828154811061109e5761109d611fbb565b5b90600052602060002090600202016001015411156110ff5760405180602001604052808281525060049060016110d5929190611870565b50600381815481106110ea576110e9611fbb565b5b90600052602060002090600202016001015491505b808061110a90612019565b915050611025565b507f0a97a4ee45751e2abf3e4fc8946939630b11b371ea8ae39ccdc3056e98f5cc3f6004600260009054906101000a900460ff16604051611154929190612189565b60405180910390a150565b611167611704565b73ffffffffffffffffffffffffffffffffffffffff16611185610d1c565b73ffffffffffffffffffffffffffffffffffffffff16146111db576040517f08c379a00000000000000000000000000000000000000000000000000000000081526004016111d2906120d7565b60405180910390fd5b600160058111156111ef576111ee611d4d565b5b600260009054906101000a900460ff16600581111561121157611210611d4d565b5b14611251576040517f08c379a0000000000000000000000000000000000000000000000000000000008152600401611248906125ce565b60405180910390fd5b60028060006101000a81548160ff0219169083600581111561127657611275611d4d565b5b02179055507f0a97a4ee45751e2abf3e4fc8946939630b11b371ea8ae39ccdc3056e98f5cc3f6001600260009054906101000a900460ff166040516112bc929190612189565b60405180910390a1565b6112ce611704565b73ffffffffffffffffffffffffffffffffffffffff166112ec610d1c565b73ffffffffffffffffffffffffffffffffffffffff1614611342576040517f08c379a0000000000000000000000000000000000000000000000000000000008152600401611339906120d7565b60405180910390fd5b6002600581111561135657611355611d4d565b5b600260009054906101000a900460ff16600581111561137857611377611d4d565b5b146113b8576040517f08c379a00000000000000000000000000000000000000000000000000000000081526004016113af90612660565b60405180910390fd5b6003600260006101000a81548160ff021916908360058111156113de576113dd611d4d565b5b02179055507f0a97a4ee45751e2abf3e4fc8946939630b11b371ea8ae39ccdc3056e98f5cc3f60028060009054906101000a900460ff16604051611423929190612189565b60405180910390a1565b611435611704565b73ffffffffffffffffffffffffffffffffffffffff16611453610d1c565b73ffffffffffffffffffffffffffffffffffffffff16146114a9576040517f08c379a00000000000000000000000000000000000000000000000000000000081526004016114a0906120d7565b60405180910390fd5b600073ffffffffffffffffffffffffffffffffffffffff168173ffffffffffffffffffffffffffffffffffffffff161415611519576040517f08c379a0000000000000000000000000000000000000000000000000000000008152600401611510906126f2565b60405180910390fd5b6115228161170c565b50565b61152d611704565b73ffffffffffffffffffffffffffffffffffffffff1661154b610d1c565b73ffffffffffffffffffffffffffffffffffffffff16146115a1576040517f08c379a0000000000000000000000000000000000000000000000000000000008152600401611598906120d7565b60405180910390fd5b600060058111156115b5576115b4611d4d565b5b600260009054906101000a900460ff1660058111156115d7576115d6611d4d565b5b14611617576040517f08c379a000000000000000000000000000000000000000000000000000000000815260040161160e9061275e565b60405180910390fd5b6000600160008373ffffffffffffffffffffffffffffffffffffffff1673ffffffffffffffffffffffffffffffffffffffff16815260200190815260200160002090508060000160009054906101000a900460ff16156116ac576040517f08c379a00000000000000000000000000000000000000000000000000000000081526004016116a3906127ca565b60405180910390fd5b60018160000160006101000a81548160ff0219169083151502179055507fb6be2187d059cc2a55fe29e0e503b566e1e0f8c8780096e185429350acffd3dd826040516116f89190611d32565b60405180910390a15050565b600033905090565b60008060009054906101000a900473ffffffffffffffffffffffffffffffffffffffff169050816000806101000a81548173ffffffffffffffffffffffffffffffffffffffff021916908373ffffffffffffffffffffffffffffffffffffffff1602179055508173ffffffffffffffffffffffffffffffffffffffff168173ffffffffffffffffffffffffffffffffffffffff167f8be0079c531659141344cd1fd0a4f28419497f9722a3daafe3b4186f6b6457e060405160405180910390a35050565b8280546117dc90612308565b90600052602060002090601f0160209004810192826117fe5760008555611845565b82601f1061181757805160ff1916838001178555611845565b82800160010185558215611845579182015b82811115611844578251825591602001919060010190611829565b5b50905061185291906118bd565b5090565b604051806040016040528060608152602001600081525090565b8280548282559060005260206000209081019282156118ac579160200282015b828111156118ab578251825591602001919060010190611890565b5b5090506118b991906118bd565b5090565b5b808211156118d65760008160009055506001016118be565b5090565b6000604051905090565b600080fd5b600080fd5b6000819050919050565b611901816118ee565b811461190c57600080fd5b50565b60008135905061191e816118f8565b92915050565b60006020828403121561193a576119396118e4565b5b60006119488482850161190f565b91505092915050565b600080fd5b600080fd5b6000601f19601f8301169050919050565b7f4e487b7100000000000000000000000000000000000000000000000000000000600052604160045260246000fd5b6119a48261195b565b810181811067ffffffffffffffff821117156119c3576119c261196c565b5b80604052505050565b60006119d66118da565b90506119e2828261199b565b919050565b600067ffffffffffffffff821115611a0257611a0161196c565b5b611a0b8261195b565b9050602081019050919050565b82818337600083830152505050565b6000611a3a611a35846119e7565b6119cc565b905082815260208101848484011115611a5657611a55611956565b5b611a61848285611a18565b509392505050565b600082601f830112611a7e57611a7d611951565b5b8135611a8e848260208601611a27565b91505092915050565b600060208284031215611aad57611aac6118e4565b5b600082013567ffffffffffffffff811115611acb57611aca6118e9565b5b611ad784828501611a69565b91505092915050565b600081519050919050565b600082825260208201905092915050565b6000819050602082019050919050565b600081519050919050565b600082825260208201905092915050565b60005b83811015611b46578082015181840152602081019050611b2b565b83811115611b55576000848401525b50505050565b6000611b6682611b0c565b611b708185611b17565b9350611b80818560208601611b28565b611b898161195b565b840191505092915050565b611b9d816118ee565b82525050565b60006040830160008301518482036000860152611bc08282611b5b565b9150506020830151611bd56020860182611b94565b508091505092915050565b6000611bec8383611ba3565b905092915050565b6000602082019050919050565b6000611c0c82611ae0565b611c168185611aeb565b935083602082028501611c2885611afc565b8060005b85811015611c645784840389528151611c458582611be0565b9450611c5083611bf4565b925060208a01995050600181019050611c2c565b50829750879550505050505092915050565b60006020820190508181036000830152611c908184611c01565b905092915050565b600073ffffffffffffffffffffffffffffffffffffffff82169050919050565b6000611cc382611c98565b9050919050565b611cd381611cb8565b8114611cde57600080fd5b50565b600081359050611cf081611cca565b92915050565b600060208284031215611d0c57611d0b6118e4565b5b6000611d1a84828501611ce1565b91505092915050565b611d2c81611cb8565b82525050565b6000602082019050611d476000830184611d23565b92915050565b7f4e487b7100000000000000000000000000000000000000000000000000000000600052602160045260246000fd5b60068110611d8d57611d8c611d4d565b5b50565b6000819050611d9e82611d7c565b919050565b6000611dae82611d90565b9050919050565b611dbe81611da3565b82525050565b6000602082019050611dd96000830184611db5565b92915050565b60008115159050919050565b611df481611ddf565b82525050565b611e03816118ee565b82525050565b6000606082019050611e1e6000830186611deb565b611e2b6020830185611deb565b611e386040830184611dfa565b949350505050565b600082825260208201905092915050565b7f536f72727920796f7520617265206e6f7420616c6c6f77656420746f2073656e60008201527f6420612070726f706f73616c20616e6420766f74650000000000000000000000602082015250565b6000611ead603583611e40565b9150611eb882611e51565b604082019050919050565b60006020820190508181036000830152611edc81611ea0565b9050919050565b7f49742773206e6f7420616c6c6f77656420746f20766f74650000000000000000600082015250565b6000611f19601883611e40565b9150611f2482611ee3565b602082019050919050565b60006020820190508181036000830152611f4881611f0c565b9050919050565b7f596f7520616c726561647920766f746564000000000000000000000000000000600082015250565b6000611f85601183611e40565b9150611f9082611f4f565b602082019050919050565b60006020820190508181036000830152611fb481611f78565b9050919050565b7f4e487b7100000000000000000000000000000000000000000000000000000000600052603260045260246000fd5b7f4e487b7100000000000000000000000000000000000000000000000000000000600052601160045260246000fd5b6000612024826118ee565b91507fffffffffffffffffffffffffffffffffffffffffffffffffffffffffffffffff82141561205757612056611fea565b5b600182019050919050565b60006040820190506120776000830185611d23565b6120846020830184611dfa565b9392505050565b7f4f776e61626c653a2063616c6c6572206973206e6f7420746865206f776e6572600082015250565b60006120c1602083611e40565b91506120cc8261208b565b602082019050919050565b600060208201905081810360008301526120f0816120b4565b9050919050565b7f43757272656e7420737461747573206973206e6f7420766f746572732072656760008201527f697374726174696f6e0000000000000000000000000000000000000000000000602082015250565b6000612153602983611e40565b915061215e826120f7565b604082019050919050565b6000602082019050818103600083015261218281612146565b9050919050565b600060408201905061219e6000830185611db5565b6121ab6020830184611db5565b9392505050565b7f49742773206e6f7420616c6c6f77656420746f206164642070726f706f73616c600082015250565b60006121e8602083611e40565b91506121f3826121b2565b602082019050919050565b60006020820190508181036000830152612217816121db565b9050919050565b6000612229826118ee565b9150612234836118ee565b92508282101561224757612246611fea565b5b828203905092915050565b60006020820190506122676000830184611dfa565b92915050565b7f566f7465206e6f7420656e646564000000000000000000000000000000000000600082015250565b60006122a3600e83611e40565b91506122ae8261226d565b602082019050919050565b600060208201905081810360008301526122d281612296565b9050919050565b7f4e487b7100000000000000000000000000000000000000000000000000000000600052602260045260246000fd5b6000600282049050600182168061232057607f821691505b60208210811415612334576123336122d9565b5b50919050565b7f49742773206e6f7420616c6c6f77656420746f2072656d6f766520766f74657260008201527f7300000000000000000000000000000000000000000000000000000000000000602082015250565b6000612396602183611e40565b91506123a18261233a565b604082019050919050565b600060208201905081810360008301526123c581612389565b9050919050565b7f766f746572206e6f742072656769737465726564000000000000000000000000600082015250565b6000612402601483611e40565b915061240d826123cc565b602082019050919050565b60006020820190508181036000830152612431816123f5565b9050919050565b7f43757272656e7420737461747573206973206e6f7420766f74696e672073657360008201527f73696f6e00000000000000000000000000000000000000000000000000000000602082015250565b6000612494602483611e40565b915061249f82612438565b604082019050919050565b600060208201905081810360008301526124c381612487565b9050919050565b7f43757272656e7420737461747573206973206e6f7420766f74696e672073657360008201527f73696f6e20656e64656400000000000000000000000000000000000000000000602082015250565b6000612526602a83611e40565b9150612531826124ca565b604082019050919050565b6000602082019050818103600083015261255581612519565b9050919050565b7f43757272656e7420737461747573206973206e6f742070726f706f73616c732060008201527f726567697374726174696f6e0000000000000000000000000000000000000000602082015250565b60006125b8602c83611e40565b91506125c38261255c565b604082019050919050565b600060208201905081810360008301526125e7816125ab565b9050919050565b7f43757272656e7420737461747573206973206e6f742070726f706f73616c732060008201527f726567697374726174696f6e20656e6465640000000000000000000000000000602082015250565b600061264a603283611e40565b9150612655826125ee565b604082019050919050565b600060208201905081810360008301526126798161263d565b9050919050565b7f4f776e61626c653a206e6577206f776e657220697320746865207a65726f206160008201527f6464726573730000000000000000000000000000000000000000000000000000602082015250565b60006126dc602683611e40565b91506126e782612680565b604082019050919050565b6000602082019050818103600083015261270b816126cf565b9050919050565b7f49742773206e6f7420616c6c6f77656420746f2061646420766f746572730000600082015250565b6000612748601e83611e40565b915061275382612712565b602082019050919050565b600060208201905081810360008301526127778161273b565b9050919050565b7f766f74657220616c726561647920726567697374657265640000000000000000600082015250565b60006127b4601883611e40565b91506127bf8261277e565b602082019050919050565b600060208201905081810360008301526127e3816127a7565b905091905056fea26469706673582212203cccf3c480df025d38260d50ae8fb51ebc66548396c1836cc9471cf41b1abcc764736f6c63430008090033",
  "immutableReferences": {},
  "source": "// SPDX-License-Identifier: GPL-3.0\n\npragma solidity ^0.8.7;\n\nimport \"@openzeppelin/contracts/access/Ownable.sol\";\n\n/** \n    @title Voting system\n    @author MB2M\n    @notice This contract manage a voting process. Owner add voters and is responsible of the workflow\n    @dev \n */\n\ncontract Voting is Ownable {\n    struct Voter {\n        bool isRegistered;\n        bool hasVoted;\n        uint256 votedProposalId;\n    }\n\n    struct Proposal {\n        string description;\n        uint256 voteCount;\n    }\n\n    /** \n        @notice View the status of a potential voter\n     */ \n\n    mapping(address => Voter) public voters;\n\n    enum WorkflowStatus {\n        RegisteringVoters,\n        ProposalsRegistrationStarted,\n        ProposalsRegistrationEnded,\n        VotingSessionStarted,\n        VotingSessionEnded,\n        VotesTallied\n    }\n\n    WorkflowStatus public workflowStatus;\n\n    Proposal[] _proposals;\n    uint256[] _winningProposalId;\n\n    /**\n        @notice event emited when a voter is registered by owner\n        @param _voterAddress address of the voter\n     */\n    event VoterRegistered(address _voterAddress);\n\n    /**\n        @notice event emited when the owner change the state of the workflow\n        @param _previousStatus previous workflow state\n        @param _newStatus new workflow state\n     */\n    event WorkflowStatusChange(\n        WorkflowStatus _previousStatus,\n        WorkflowStatus _newStatus\n    );\n\n    /**\n        @notice event emited when a new proposal is registered\n        @param _proposalId id of the registered proposal\n     */\n    event ProposalRegistered(uint256 _proposalId);\n\n    /**\n        @notice event emited when a Voter vote\n        @param _voter address of the voter\n        @param _proposalId id of the voted proposal\n     */\n    event Voted(address _voter, uint256 _proposalId);\n\n\n    /// @dev Only voter with .isRegistered\n    modifier onlyVoters() {\n        require(\n            voters[msg.sender].isRegistered,\n            \"Sorry you are not allowed to send a proposal and vote\"\n        );\n        _;\n    }\n\n    /**\n        @notice Change the workflow of the voting to ProposalsRegistrationStarted\n        @dev Based on the enum WorkflowStatus\n     */\n    function startProposalRegistration() external onlyOwner {\n        require(\n            workflowStatus == WorkflowStatus.RegisteringVoters,\n            \"Current status is not voters registration\"\n        );\n        workflowStatus = WorkflowStatus.ProposalsRegistrationStarted;\n\n        emit WorkflowStatusChange(\n            WorkflowStatus.RegisteringVoters,\n            workflowStatus\n        );\n    }\n\n    /**\n        @notice Change the workflow of the voting to ProposalsRegistrationEnded\n        @dev Based on the enum WorkflowStatus\n     */\n    function endProposalRegistration() external onlyOwner {\n        require(\n            workflowStatus == WorkflowStatus.ProposalsRegistrationStarted,\n            \"Current status is not proposals registration\"\n        );\n        workflowStatus = WorkflowStatus.ProposalsRegistrationEnded;\n\n        emit WorkflowStatusChange(\n            WorkflowStatus.ProposalsRegistrationStarted,\n            workflowStatus\n        );\n    }\n\n    /**\n        @notice Change the workflow of the voting to VotingSessionStarted\n        @dev Based on the enum WorkflowStatus\n     */\n    function startVotingSession() external onlyOwner {\n        require(\n            workflowStatus == WorkflowStatus.ProposalsRegistrationEnded,\n            \"Current status is not proposals registration ended\"\n        );\n        workflowStatus = WorkflowStatus.VotingSessionStarted;\n\n        emit WorkflowStatusChange(\n            WorkflowStatus.ProposalsRegistrationEnded,\n            workflowStatus\n        );\n    }\n\n    /**\n        @notice Change the workflow of the voting to VotingSessionEnded\n        @dev Based on the enum WorkflowStatus\n     */\n    function endVotingSession() external onlyOwner {\n        require(\n            workflowStatus == WorkflowStatus.VotingSessionStarted,\n            \"Current status is not voting session\"\n        );\n        workflowStatus = WorkflowStatus.VotingSessionEnded;\n\n        emit WorkflowStatusChange(\n            WorkflowStatus.VotingSessionStarted,\n            workflowStatus\n        );\n    }\n\n    /**\n        @notice Last step of the workflow. Count the winning proposal. Close the voting session.\n        @dev Based on the enum WorkflowStatus.\n        the loop for manage the case where there is an equality\n     */\n\n    function closeVoting() external onlyOwner {\n        require(\n            workflowStatus == WorkflowStatus.VotingSessionEnded,\n            \"Current status is not voting session ended\"\n        );\n        workflowStatus = WorkflowStatus.VotesTallied;\n        uint256 highestCount = 0;\n        for (uint256 i = 0; i < _proposals.length; i++) {\n            if (_proposals[i].voteCount == highestCount) {\n                _winningProposalId.push(i);\n            }\n            if (_proposals[i].voteCount > highestCount) {\n                _winningProposalId = [i];\n                highestCount = _proposals[i].voteCount;\n            }\n        }\n\n        emit WorkflowStatusChange(\n            WorkflowStatus.VotingSessionEnded,\n            workflowStatus\n        );\n    }\n\n    /**\n        @notice Add a voter\n        @dev Set Voter.isRegistered to true for the _address in param\n        Revert if voter is already registered.\n        @param _address Address of the future voter.\n     */\n    function addVoter(address _address) external onlyOwner {\n        require(\n            workflowStatus == WorkflowStatus.RegisteringVoters,\n            \"It's not allowed to add voters\"\n        );\n        Voter storage voter = voters[_address];\n        require(!voter.isRegistered, \"voter already registered\");\n        voter.isRegistered = true;\n\n        emit VoterRegistered(_address);\n    }\n\n    /**\n        @notice Remove a voter\n        @dev Set Voter.isRegistered to false for the _address in param\n        Revert if voter is already unregistered.\n        @param _address Address of the selected current voter.\n     */\n    function removeVoter(address _address) external onlyOwner {\n        require(\n            workflowStatus == WorkflowStatus.RegisteringVoters,\n            \"It's not allowed to remove voters\"\n        );\n        Voter storage voter = voters[_address];\n        require(voter.isRegistered, \"voter not registered\");\n        voter.isRegistered = false;\n    }\n\n    /**\n        @notice add a proposal\n        @param _description description of the proposal\n     */\n    function addProposal(string memory _description) external onlyVoters {\n        require(\n            workflowStatus == WorkflowStatus.ProposalsRegistrationStarted,\n            \"It's not allowed to add proposal\"\n        );\n        Proposal memory proposal = Proposal(_description, 0);\n        _proposals.push(proposal);\n\n        emit ProposalRegistered(_proposals.length - 1);\n    }\n\n    /**\n        @notice voter vote for a proposal\n        @dev set Voter.hasVoted to true.  set the id of the proposal to Voter.votedProposalId\n        @param _proposalId id of the proposal\n     */\n    function vote(uint256 _proposalId) external onlyVoters {\n        require(\n            workflowStatus == WorkflowStatus.VotingSessionStarted,\n            \"It's not allowed to vote\"\n        );\n        Voter storage voter = voters[msg.sender];\n        require(!voter.hasVoted, \"You already voted\");\n        require(_proposalId < _proposals.length);\n\n        _proposals[_proposalId].voteCount++;\n        voter.hasVoted = true;\n        voter.votedProposalId = _proposalId;\n\n        emit Voted(msg.sender, _proposalId);\n    }\n\n    /**\n        @notice view the winning proposal(s)\n        @return winner an array of proposals.\n     */\n    function winningProposal() public view returns (Proposal[] memory winner) {\n        require(\n            workflowStatus == WorkflowStatus.VotesTallied,\n            \"Vote not ended\"\n        );\n        uint256 size = _winningProposalId.length;\n        Proposal[] memory winProposals = new Proposal[](size);\n        for (uint256 i = 0; i < _winningProposalId.length; i++) {\n            winProposals[i] = _proposals[_winningProposalId[i]];\n        }\n        return winProposals;\n    }\n\n    /**\n        @notice view all the proposals\n        @return proposals an array of proposals.\n     */\n    function viewProposals() public view returns (Proposal[] memory proposals) {\n        return _proposals;\n    }\n}\n",
  "sourcePath": "/home/aphal/alyra/voting-system/contracts/Voting.sol",
  "compiler": {
    "name": "solc",
    "version": "0.8.9+commit.e5eed63a.Emscripten.clang"
  },
  "schemaVersion": "3.4.3",
  "updatedAt": "2021-11-29T11:54:20.410Z",
  "networkType": "ethereum",
  "devdoc": {
    "author": "MB2M",
    "events": {
      "ProposalRegistered(uint256)": {
        "params": {
          "_proposalId": "id of the registered proposal"
        }
      },
      "Voted(address,uint256)": {
        "params": {
          "_proposalId": "id of the voted proposal",
          "_voter": "address of the voter"
        }
      },
      "VoterRegistered(address)": {
        "params": {
          "_voterAddress": "address of the voter"
        }
      },
      "WorkflowStatusChange(uint8,uint8)": {
        "params": {
          "_newStatus": "new workflow state",
          "_previousStatus": "previous workflow state"
        }
      }
    },
    "kind": "dev",
    "methods": {
      "addProposal(string)": {
        "params": {
          "_description": "description of the proposal"
        }
      },
      "addVoter(address)": {
        "details": "Set Voter.isRegistered to true for the _address in param Revert if voter is already registered.",
        "params": {
          "_address": "Address of the future voter."
        }
      },
      "closeVoting()": {
        "details": "Based on the enum WorkflowStatus. the loop for manage the case where there is an equality"
      },
      "endProposalRegistration()": {
        "details": "Based on the enum WorkflowStatus"
      },
      "endVotingSession()": {
        "details": "Based on the enum WorkflowStatus"
      },
      "owner()": {
        "details": "Returns the address of the current owner."
      },
      "removeVoter(address)": {
        "details": "Set Voter.isRegistered to false for the _address in param Revert if voter is already unregistered.",
        "params": {
          "_address": "Address of the selected current voter."
        }
      },
      "renounceOwnership()": {
        "details": "Leaves the contract without owner. It will not be possible to call `onlyOwner` functions anymore. Can only be called by the current owner. NOTE: Renouncing ownership will leave the contract without an owner, thereby removing any functionality that is only available to the owner."
      },
      "startProposalRegistration()": {
        "details": "Based on the enum WorkflowStatus"
      },
      "startVotingSession()": {
        "details": "Based on the enum WorkflowStatus"
      },
      "transferOwnership(address)": {
        "details": "Transfers ownership of the contract to a new account (`newOwner`). Can only be called by the current owner."
      },
      "viewProposals()": {
        "returns": {
          "proposals": "an array of proposals."
        }
      },
      "vote(uint256)": {
        "details": "set Voter.hasVoted to true.  set the id of the proposal to Voter.votedProposalId",
        "params": {
          "_proposalId": "id of the proposal"
        }
      },
      "winningProposal()": {
        "returns": {
          "winner": "an array of proposals."
        }
      }
    },
    "title": "Voting system",
    "version": 1
  },
  "userdoc": {
    "events": {
      "ProposalRegistered(uint256)": {
        "notice": "event emited when a new proposal is registered"
      },
      "Voted(address,uint256)": {
        "notice": "event emited when a Voter vote"
      },
      "VoterRegistered(address)": {
        "notice": "event emited when a voter is registered by owner"
      },
      "WorkflowStatusChange(uint8,uint8)": {
        "notice": "event emited when the owner change the state of the workflow"
      }
    },
    "kind": "user",
    "methods": {
      "addProposal(string)": {
        "notice": "add a proposal"
      },
      "addVoter(address)": {
        "notice": "Add a voter"
      },
      "closeVoting()": {
        "notice": "Last step of the workflow. Count the winning proposal. Close the voting session."
      },
      "endProposalRegistration()": {
        "notice": "Change the workflow of the voting to ProposalsRegistrationEnded"
      },
      "endVotingSession()": {
        "notice": "Change the workflow of the voting to VotingSessionEnded"
      },
      "removeVoter(address)": {
        "notice": "Remove a voter"
      },
      "startProposalRegistration()": {
        "notice": "Change the workflow of the voting to ProposalsRegistrationStarted"
      },
      "startVotingSession()": {
        "notice": "Change the workflow of the voting to VotingSessionStarted"
      },
      "viewProposals()": {
        "notice": "view all the proposals"
      },
      "vote(uint256)": {
        "notice": "voter vote for a proposal"
      },
      "voters(address)": {
        "notice": "View the status of a potential voter"
      },
      "winningProposal()": {
        "notice": "view the winning proposal(s)"
      }
    },
    "notice": "This contract manage a voting process. Owner add voters and is responsible of the workflow",
    "version": 1
  }
}